:100000000C9434000C9451000C9451000C94510049
:100010000C9451000C9451000C9451000C9451001C
:100020000C9451000C9451000C947D000C945100E0
:100030000C9451000C9451000C9451000C945100FC
:100040000C9451000C9451000C9451000C945100EC
:100050000C9451000C9451000C9451000C945100DC
:100060000C9451000C94510011241FBECFEFD8E026
:10007000DEBFCDBF11E0A0E0B1E0E8EDF4E002C0EA
:1000800005900D92AE34B107D9F721E0AEE4B1E0AE
:1000900001C01D92A135B207E1F70E94DD000C946A
:1000A0006A020C940000E0E8F0E0808182628083C4
:1000B000E1E8F0E0808181618083E6E8F0E08BEEAA
:1000C00090E0918380836081718180E090E00E9464
:1000D000790120E030E040E05FE30E9407020E94E7
:1000E0004D0160934E01EFE6F0E0808180628083F5
:1000F00010928B0010928A0008951F920F920FB6F3
:100100000F921124CF92DF92EF92FF922F933F93A1
:100110004F935F936F937F938F939F93AF93BF930F
:10012000CF93EF93FF939091500180914C018917E9
:1001300010F410925001C0915001CF5FC093500154
:1001400060914E0170E080E090E00E947B016B01C5
:100150007C0184E0C89FF0011124E050FF4F208112
:10016000318142815381C701B6010E9407029B0180
:10017000AC01C701B6010E94E9000E944D017093D5
:100180008B0060938A00FF91EF91CF91BF91AF9167
:100190009F918F917F916F915F914F913F912F919F
:1001A000FF90EF90DF90CF900F900FBE0F901F90B9
:1001B000189584E084B915B808950E9453000E94F0
:1001C000D90080914C01869580934F017894FFCFA0
:1001D0005058BB27AA270ED0E0C0D1D030F0D6D0DF
:1001E00020F031F49F3F11F41EF4C6C00EF4E095E8
:1001F000E7FBBCC0E92FE2D080F3BA1762077307B0
:100200008407950718F071F49EF5FAC00EF4E09596
:100210000B2EBA2FA02D0B01B90190010C01CA01C0
:10022000A0011124FF27591B99F0593F50F4503E6B
:1002300068F11A16F040A22F232F342F4427585F5D
:10024000F3CF469537952795A795F0405395C9F775
:100250007EF41F16BA0B620B730B840BBAF091502D
:10026000A1F0FF0FBB1F661F771F881FC2F70EC0CC
:10027000BA0F621F731F841F48F48795779567959F
:10028000B795F7959E3F08F0B3CF9395880F08F088
:100290009927EE0F97958795089598D088F09F57E6
:1002A00090F0B92F9927B751A0F0D1F0660F771FC2
:1002B000881F991F1AF0BA95C9F712C0B13081F0A2
:1002C0009FD0B1E008959CC0672F782F8827B85F32
:1002D00039F0B93FCCF3869577956795B395D9F703
:1002E0003EF490958095709561957F4F8F4F9F4F0D
:1002F0000895E89409C097FB3EF490958095709519
:1003000061957F4F8F4F9F4F9923A9F0F92F96E961
:10031000BB279395F695879577956795B795F111D6
:10032000F8CFFAF4BB0F11F460FF1BC06F5F7F4F73
:100330008F4F9F4F16C0882311F096E911C0772385
:1003400021F09EE8872F762F05C0662371F096E88E
:10035000862F70E060E02AF09A95660F771F881F5D
:10036000DAF7880F9695879597F9089597F99F671B
:1003700080E870E060E008959FEF80EC089500242D
:100380000A941616170618060906089500240A94FA
:1003900012161306140605060895092E0394000C80
:1003A00011F4882352F0BB0F40F4BF2B11F460FF0F
:1003B00004C06F5F7F4F8F4F9F4F089557FD905838
:1003C000440F551F59F05F3F71F04795880F97FB19
:1003D000991F61F09F3F79F08795089512161306D3
:1003E0001406551FF2CF4695F1DF08C01616170602
:1003F0001806991FF1CF8695710561050894089537
:10040000E894BB2766277727CB0197F908950BD08F
:10041000C4CFB5DF28F0BADF18F0952309F0A6CFD6
:10042000ABCF1124EECFCADFA0F3959FD1F3950F88
:1004300050E0551F629FF001729FBB27F00DB11D68
:10044000639FAA27F00DB11DAA1F649F6627B00DF8
:10045000A11D661F829F2227B00DA11D621F739FE1
:10046000B00DA11D621F839FA00D611D221F749FEF
:100470003327A00D611D231F849F600D211D822F36
:10048000762F6A2F11249F5750408AF0E1F088237D
:100490004AF0EE0FFF1FBB1F661F771F881F91508A
:1004A0005040A9F79E3F510570F060CFAACF5F3F43
:1004B000ECF3983EDCF3869577956795B795F795BD
:1004C000E7959F5FC1F7FE2B880F911D9695879545
:0804D00097F90895F894FFCF9D
:1004D80000000000A01AAF3EA69B243F2DB25D3F4E
:1004E800F6287C3FF6287C3F2DB25D3FA69B243F33
:1004F800A01AAF3E00000000A01AAFBEA69B24BF02
:100508002DB25DBFF6287CBFF6287CBF2DB25DBF3B
:0E051800A69B24BFA01AAFBE00000000110079
:00000001FF
