:100000000C9434000C9451000C9451000C94510049
:100010000C9451000C9451000C9451000C9451001C
:100020000C9451000C9451000C9471000C945100EC
:100030000C9451000C9451000C9451000C945100FC
:100040000C9451000C9451000C9451000C945100EC
:100050000C9451000C9451000C9451000C945100DC
:100060000C9451000C94510011241FBECFEFD8E026
:10007000DEBFCDBF15E0A0E0B1E0EEE8F5E002C0E4
:1000800005900D92A630B107D9F725E0A6E0B5E0BE
:1000900001C01D92A631B207E1F70E94F8000C944E
:1000A000C5020C940000E0E8F0E080818262808369
:1000B000E1E8F0E0808181618083E6E8F0E083EFB1
:1000C00091E0918380838081918180930E05EFE69A
:1000D000F0E080818062808310928B0010928A0011
:1000E00008951F920F920FB60F921124CF92DF92B4
:1000F000EF92FF922F933F934F935F936F937F9372
:100100008F939F93AF93BF93EF93FF9360910405F9
:1001100070E080E090E00E94AE019B01AC01609134
:1001200012057091130580911405909115050E9498
:100130003A02181644F41092120510921305109208
:1001400014051092150520910A0530910B05409178
:100150000C0550910D056091120570911305809169
:100160001405909115050E941C016093120570936F
:10017000130580931405909315050E9480016B016F
:100180007C01709311056093100560910E0570E07D
:1001900080E090E00E94AE01F601EE0FFF1FEE0F2F
:1001A000FF1FE050FF4F20813181428153810E9427
:1001B0003E020E94800170938B0060938A00FF9141
:1001C000EF91BF91AF919F918F917F916F915F91CF
:1001D0004F913F912F91FF90EF90DF90CF900F9034
:1001E0000FBE0F901F90189584E084B915B808953C
:1001F0000E9453000E94F40080910405869580932C
:100200000F0580E090E0A0EAB0E4809306059093AB
:100210000705A0930805B09309058DEC9CECACE4B0
:10022000B2E480930A0590930B05A0930C05B0935C
:100230000D057894FFCF5058BB27AA270ED0E0C0F9
:10024000D1D030F0D6D020F031F49F3F11F41EF41D
:10025000C6C00EF4E095E7FBBCC0E92FE2D080F306
:10026000BA17620773078407950718F071F49EF5B3
:10027000FAC00EF4E0950B2EBA2FA02D0B01B90198
:1002800090010C01CA01A0011124FF27591B99F00C
:10029000593F50F4503E68F11A16F040A22F232F18
:1002A000342F4427585FF3CF469537952795A79568
:1002B000F0405395C9F77EF41F16BA0B620B730B0F
:1002C000840BBAF09150A1F0FF0FBB1F661F771F80
:1002D000881FC2F70EC0BA0F621F731F841F48F435
:1002E000879577956795B795F7959E3F08F0B3CFBB
:1002F0009395880F08F09927EE0F979587950895A5
:1003000098D088F09F5790F0B92F9927B751A0F057
:10031000D1F0660F771F881F991F1AF0BA95C9F799
:1003200012C0B13081F09FD0B1E008959CC0672F1A
:10033000782F8827B85F39F0B93FCCF38695779549
:100340006795B395D9F73EF4909580957095619532
:100350007F4F8F4F9F4F0895E89409C097FB3EF45D
:1003600090958095709561957F4F8F4F9F4F992302
:10037000A9F0F92F96E9BB279395F6958795779580
:100380006795B795F111F8CFFAF4BB0F11F460FF40
:100390001BC06F5F7F4F8F4F9F4F16C0882311F098
:1003A00096E911C0772321F09EE8872F762F05C0AC
:1003B000662371F096E8862F70E060E02AF09A9547
:1003C000660F771F881FDAF7880F9695879597F93C
:1003D000089597F99F6780E870E060E008959FEFC7
:1003E00080EC089500240A941616170618060906CC
:1003F000089500240A94121613061406050608959B
:10040000092E0394000C11F4882352F0BB0F40F422
:10041000BF2B11F460FF04C06F5F7F4F8F4F9F4F62
:10042000089557FD9058440F551F59F05F3F71F0E4
:100430004795880F97FB991F61F09F3F79F087954B
:100440000895121613061406551FF2CF4695F1DFD4
:1004500008C0161617061806991FF1CF8695710564
:10046000610508940895E894BB2766277727CB0198
:1004700097F9089566D008F48FEF08950BD0C0CF98
:10048000B1DF28F0B6DF18F0952309F0A2CFA7CF8F
:100490001124EACFC6DFA0F3959FD1F3950F50E06A
:1004A000551F629FF001729FBB27F00DB11D639F26
:1004B000AA27F00DB11DAA1F649F6627B00DA11DCC
:1004C000661F829F2227B00DA11D621F739FB00D72
:1004D000A11D621F839FA00D611D221F749F3327E2
:1004E000A00D611D231F849F600D211D822F762F7B
:1004F0006A2F11249F5750408AF0E1F088234AF078
:10050000EE0FFF1FBB1F661F771F881F91505040C3
:10051000A9F79E3F510570F05CCFA6CF5F3FECF38B
:10052000983EDCF3869577956795B795F795E795AF
:100530009F5FC1F7FE2B880F911D9695879597F9C0
:100540000895990F0008550FAA0BE0E8FEEF161664
:100550001706E807F907C0F012161306E407F507B7
:1005600098F0621B730B840B950B39F40A2661F02B
:10057000232B242B252B21F408950A2609F4A140CE
:0E058000A6958FEF811D811D0895F894FFCF81
:10058E000000803F0000803F0000803F0000803F61
:10059E000000803F0000803FA4707D3FA4707D3F2F
:1005AE00A4707D3FA4707D3FA4707D3F48E17A3FEB
:1005BE0048E17A3FEC51783FEC51783FEC51783F6F
:1005CE008FC2753F8FC2753F3333733F3333733FE3
:1005DE00D7A3703FD7A3703F7B146E3F1F856B3F31
:1005EE001F856B3FC3F5683F6666663F0AD7633F5C
:1005FE000AD7633FAE47613F52B85E3FF6285C3F75
:10060E009A99593F3D0A573F3D0A573FE17A543F69
:10061E0085EB513F295C4F3FCDCC4C3F713D4A3F5E
:10062E0014AE473FB81E453F5C8F423F0000403F2F
:10063E00A4703D3FEC51383F8FC2353F3333333FCB
:10064E00D7A3303F7B142E3F1F852B3FC3F5283F8A
:10065E006666263FAE47213F52B81E3FF6281C3F26
:10066E009A99193F3D0A173F85EB113F295C0F3FC1
:10067E00CDCC0C3F713D0A3FB81E053F5C8F023F4B
:10068E000000003F48E1FA3E8FC2F53E1F85EB3E6B
:10069E006666E63EAE47E13EF628DC3E85EBD13E91
:1006AE00CDCCCC3E14AEC73E5C8FC23EA470BD3ED8
:1006BE003333B33E7B14AE3EC3F5A83E0AD7A33EFA
:1006CE0052B89E3E9A99993EE17A943E295C8F3EAD
:1006DE00B81E853E0000803E8FC2753E1F856B3E64
:1006EE00AE47613E3D0A573ECDCC4C3E5C8F423EFE
:1006FE00EC51383E7B142E3E0AD7233E0AD7233EBA
:10070E009A99193E295C0F3EB81E053E8FC2F53DE3
:10071E00AE47E13DAE47E13DCDCCCC3DEC51B83DD1
:10072E000AD7A33D0AD7A33D295C8F3D8FC2753DE5
:10073E008FC2753DCDCC4C3DCDCC4C3D0AD7233D23
:10074E000AD7233D8FC2F53C8FC2F53C8FC2F53CD4
:10075E000AD7A33C0AD7A33C0AD7233C0AD7233C8B
:10076E000AD7233C0AD7233C0AD7233C00000000BB
:10077E00000000000000000000000000000000006B
:10078E00000000000000000000000000000000005B
:10079E0000000000000000000AD7233C0AD7233CCB
:1007AE000AD7233C0AD7233C0AD7233C0AD7A33CBB
:1007BE000AD7A33C8FC2F53C8FC2F53C8FC2F53CE5
:1007CE000AD7233D0AD7233DCDCC4C3DCDCC4C3D55
:1007DE008FC2753D8FC2753D295C8F3D0AD7A33DF3
:1007EE000AD7A33DEC51B83DCDCCCC3DAE47E13D53
:1007FE00AE47E13D8FC2F53DB81E053E295C0F3E6A
:10080E009A99193E0AD7233E0AD7233E7B142E3ED1
:10081E00EC51383E5C8F423ECDCC4C3E3D0A573EAD
:10082E00AE47613E1F856B3E8FC2753E0000803E17
:10083E00B81E853E295C8F3EE17A943E9A99993E88
:10084E0052B89E3E0AD7A33EC3F5A83E7B14AE3ED9
:10085E003333B33EA470BD3E5C8FC23E14AEC73E72
:10086E00CDCCCC3E85EBD13EF628DC3EAE47E13E0C
:10087E006666E63E1F85EB3E8FC2F53E48E1FA3EC8
:10088E000000003F5C8F023FB81E053F713D0A3FDE
:10089E00CDCC0C3F295C0F3F85EB113F3D0A173F36
:1008AE009A99193FF6281C3F52B81E3FAE47213F7A
:1008BE006666263FC3F5283F1F852B3F7B142E3FD0
:1008CE00D7A3303F3333333F8FC2353FEC51383FE0
:1008DE00A4703D3F0000403F5C8F423FB81E453F35
:1008EE0014AE473F713D4A3FCDCC4C3F295C4F3F44
:1008FE0085EB513FE17A543F3D0A573F3D0A573F42
:10090E009A99593FF6285C3F52B85E3FAE47613F19
:10091E000AD7633F0AD7633F6666663FC3F5683FF3
:10092E001F856B3F1F856B3F7B146E3FD7A3703FB8
:10093E00D7A3703F3333733F3333733F8FC2753F4B
:10094E008FC2753FEC51783FEC51783FEC51783FB8
:10095E0048E17A3F48E17A3FA4707D3FA4707D3F25
:10096E00A4707D3FA4707D3FA4707D3F0000803F4A
:10097E000000803F0000803F0000803F0000803F6D
:06098E000000803FFF00A5
:00000001FF
