:100000000C9434000C9451000C9451000C94510049
:100010000C9451000C9451000C9451000C9451001C
:100020000C9451000C9451000C9470000C945100ED
:100030000C9451000C9451000C9451000C945100FC
:100040000C9451000C9451000C9451000C945100EC
:100050000C9451000C9451000C9451000C945100DC
:100060000C9451000C94510011241FBECFEFD8E026
:10007000DEBFCDBF12E0A0E0B1E0ECE3F1E002C0F2
:1000800005900D92A230B107D9F722E0A2E0B2E0CC
:1000900001C01D92A430B207E1F70E948F000C94BA
:1000A0009C000C94000010928000E1E8F0E0808158
:1000B000896180838FE097E2909387008093860028
:1000C000EFE6F0E080818062808384B5836284BD46
:1000D00085B5896085BD83E687BD82E388BD0895C7
:1000E0001F920F920FB60F9211248F939F939091AE
:1000F000030280910001891710F41092030280918D
:1001000003028F5F809303029F918F910F900FBE28
:100110000F901F90189580E68AB91BB808950E9429
:1001200053000E948B007894E0910302F0E0EF5FAF
:0C013000FE4F808188BDF8CFF894FFCF0F
:10013C00FF3233333435363738393A3B3C3D3E3F6A
:10014C004041424344444546474849494A4B4C4C3C
:10015C004D4E4E4F50505152525353545455555678
:10016C005656575757585858595959595959595902
:10017C005A5A5A59595959595959595858585857E6
:10018C005756565655555454535352525150504F2E
:10019C004F4E4D4C4C4B4A494948474645444443C5
:1001AC004241403F3E3D3C3B3A393837363534349A
:1001BC00333231302F2E2D2C2B2A2928272625247B
:1001CC0023222120201F1E1D1C1B1B1A1918171758
:1001DC0016151514131312111110100F0F0E0E0DFE
:1001EC000D0D0C0C0C0B0B0B0A0A0A0A0A0A0A0A54
:1001FC000A0A0A0A0A0A0A0A0A0A0A0B0B0B0C0C4C
:10020C000C0D0D0D0E0E0F0F1010111112131314E7
:10021C00151516171718191A1A1B1C1D1E1F1F202F
:10022C002122232425262728292A2B2C2D2E2F303A
:02023C0030315F
:00000001FF
